{
  "contractName": "TokenVestingFactory",
  "abi": [
    {
      "constant": true,
      "inputs": [],
      "name": "duration",
      "outputs": [
        {
          "name": "",
          "type": "uint256"
        }
      ],
      "payable": false,
      "stateMutability": "view",
      "type": "function"
    },
    {
      "constant": true,
      "inputs": [],
      "name": "cliff",
      "outputs": [
        {
          "name": "",
          "type": "uint256"
        }
      ],
      "payable": false,
      "stateMutability": "view",
      "type": "function"
    },
    {
      "constant": true,
      "inputs": [
        {
          "name": "",
          "type": "address"
        }
      ],
      "name": "mapPerson",
      "outputs": [
        {
          "name": "name",
          "type": "string"
        },
        {
          "name": "amountAllocated",
          "type": "uint256"
        },
        {
          "name": "contractAddress",
          "type": "address"
        }
      ],
      "payable": false,
      "stateMutability": "view",
      "type": "function"
    },
    {
      "constant": true,
      "inputs": [],
      "name": "owner",
      "outputs": [
        {
          "name": "",
          "type": "address"
        }
      ],
      "payable": false,
      "stateMutability": "view",
      "type": "function"
    },
    {
      "constant": true,
      "inputs": [
        {
          "name": "",
          "type": "uint256"
        }
      ],
      "name": "people",
      "outputs": [
        {
          "name": "",
          "type": "address"
        }
      ],
      "payable": false,
      "stateMutability": "view",
      "type": "function"
    },
    {
      "constant": true,
      "inputs": [],
      "name": "start",
      "outputs": [
        {
          "name": "",
          "type": "uint256"
        }
      ],
      "payable": false,
      "stateMutability": "view",
      "type": "function"
    },
    {
      "constant": true,
      "inputs": [],
      "name": "currentBalance",
      "outputs": [
        {
          "name": "",
          "type": "uint256"
        }
      ],
      "payable": false,
      "stateMutability": "view",
      "type": "function"
    },
    {
      "constant": true,
      "inputs": [],
      "name": "globalBalance",
      "outputs": [
        {
          "name": "",
          "type": "uint256"
        }
      ],
      "payable": false,
      "stateMutability": "view",
      "type": "function"
    },
    {
      "constant": false,
      "inputs": [
        {
          "name": "newOwner",
          "type": "address"
        }
      ],
      "name": "transferOwnership",
      "outputs": [],
      "payable": false,
      "stateMutability": "nonpayable",
      "type": "function"
    },
    {
      "constant": true,
      "inputs": [],
      "name": "token",
      "outputs": [
        {
          "name": "",
          "type": "address"
        }
      ],
      "payable": false,
      "stateMutability": "view",
      "type": "function"
    },
    {
      "anonymous": false,
      "inputs": [
        {
          "indexed": false,
          "name": "globalBalance",
          "type": "uint256"
        }
      ],
      "name": "SetGlobalBalance",
      "type": "event"
    },
    {
      "anonymous": false,
      "inputs": [
        {
          "indexed": false,
          "name": "personAddress",
          "type": "address"
        },
        {
          "indexed": false,
          "name": "personName",
          "type": "string"
        },
        {
          "indexed": false,
          "name": "amountAllocated",
          "type": "uint256"
        }
      ],
      "name": "AddPerson",
      "type": "event"
    },
    {
      "anonymous": false,
      "inputs": [
        {
          "indexed": false,
          "name": "beneficiary",
          "type": "address"
        },
        {
          "indexed": false,
          "name": "contractAddress",
          "type": "address"
        }
      ],
      "name": "VestingContractCreated",
      "type": "event"
    },
    {
      "anonymous": false,
      "inputs": [
        {
          "indexed": true,
          "name": "previousOwner",
          "type": "address"
        },
        {
          "indexed": true,
          "name": "newOwner",
          "type": "address"
        }
      ],
      "name": "OwnershipTransferred",
      "type": "event"
    },
    {
      "constant": false,
      "inputs": [
        {
          "name": "_token",
          "type": "address"
        }
      ],
      "name": "setGlobalBalance",
      "outputs": [],
      "payable": false,
      "stateMutability": "nonpayable",
      "type": "function"
    },
    {
      "constant": false,
      "inputs": [
        {
          "name": "_beneficiary",
          "type": "address"
        },
        {
          "name": "_name",
          "type": "string"
        },
        {
          "name": "_amountAllocated",
          "type": "uint256"
        }
      ],
      "name": "addPerson",
      "outputs": [],
      "payable": false,
      "stateMutability": "nonpayable",
      "type": "function"
    },
    {
      "constant": false,
      "inputs": [
        {
          "name": "_beneficiary",
          "type": "address"
        }
      ],
      "name": "createVestingContract",
      "outputs": [],
      "payable": false,
      "stateMutability": "nonpayable",
      "type": "function"
    },
    {
      "constant": false,
      "inputs": [],
      "name": "refund",
      "outputs": [],
      "payable": false,
      "stateMutability": "nonpayable",
      "type": "function"
    },
    {
      "constant": true,
      "inputs": [],
      "name": "getPeople",
      "outputs": [
        {
          "name": "",
          "type": "address[]"
        }
      ],
      "payable": false,
      "stateMutability": "view",
      "type": "function"
    }
  ],
  "bytecode": "0x60806040524260025561012c600355610258600354016004556001600760006101000a81548160ff021916908315150217905550336000806101000a81548173ffffffffffffffffffffffffffffffffffffffff021916908373ffffffffffffffffffffffffffffffffffffffff160217905550612986806100826000396000f3006080604052600436106100db576000357c0100000000000000000000000000000000000000000000000000000000900463ffffffff1680630fb5a6b4146100e057806313d033c01461010b578063247efcae146101365780634f995d0814610179578063590e1ae3146101e55780636c57d814146101fc578063723fa0d6146102615780638da5cb5b146103575780639e7a13ad146103ae578063be9a65551461041b578063ce845d1d14610446578063db8ede0e14610471578063f2fde38b1461049c578063fc0c546a146104df578063fe953fdf14610536575b600080fd5b3480156100ec57600080fd5b506100f5610579565b6040518082815260200191505060405180910390f35b34801561011757600080fd5b5061012061057f565b6040518082815260200191505060405180910390f35b34801561014257600080fd5b50610177600480360381019080803573ffffffffffffffffffffffffffffffffffffffff169060200190929190505050610585565b005b34801561018557600080fd5b5061018e61085d565b6040518080602001828103825283818151815260200191508051906020019060200280838360005b838110156101d15780820151818401526020810190506101b6565b505050509050019250505060405180910390f35b3480156101f157600080fd5b506101fa6108eb565b005b34801561020857600080fd5b5061025f600480360381019080803573ffffffffffffffffffffffffffffffffffffffff169060200190929190803590602001908201803590602001919091929391929390803590602001909291905050506109f2565b005b34801561026d57600080fd5b506102a2600480360381019080803573ffffffffffffffffffffffffffffffffffffffff169060200190929190505050610ddf565b60405180806020018481526020018373ffffffffffffffffffffffffffffffffffffffff1673ffffffffffffffffffffffffffffffffffffffff168152602001828103825285818151815260200191508051906020019080838360005b8381101561031a5780820151818401526020810190506102ff565b50505050905090810190601f1680156103475780820380516001836020036101000a031916815260200191505b5094505050505060405180910390f35b34801561036357600080fd5b5061036c610ec1565b604051808273ffffffffffffffffffffffffffffffffffffffff1673ffffffffffffffffffffffffffffffffffffffff16815260200191505060405180910390f35b3480156103ba57600080fd5b506103d960048036038101908080359060200190929190505050610ee6565b604051808273ffffffffffffffffffffffffffffffffffffffff1673ffffffffffffffffffffffffffffffffffffffff16815260200191505060405180910390f35b34801561042757600080fd5b50610430610f24565b6040518082815260200191505060405180910390f35b34801561045257600080fd5b5061045b610f2a565b6040518082815260200191505060405180910390f35b34801561047d57600080fd5b50610486610f30565b6040518082815260200191505060405180910390f35b3480156104a857600080fd5b506104dd600480360381019080803573ffffffffffffffffffffffffffffffffffffffff169060200190929190505050610f36565b005b3480156104eb57600080fd5b506104f461108b565b604051808273ffffffffffffffffffffffffffffffffffffffff1673ffffffffffffffffffffffffffffffffffffffff16815260200191505060405180910390f35b34801561054257600080fd5b50610577600480360381019080803573ffffffffffffffffffffffffffffffffffffffff1690602001909291905050506110b1565b005b60045481565b60035481565b6000809054906101000a900473ffffffffffffffffffffffffffffffffffffffff1673ffffffffffffffffffffffffffffffffffffffff163373ffffffffffffffffffffffffffffffffffffffff161415156105e057600080fd5b600073ffffffffffffffffffffffffffffffffffffffff168173ffffffffffffffffffffffffffffffffffffffff1614151515610685576040517f08c379a00000000000000000000000000000000000000000000000000000000081526004018080602001828103825260188152602001807f546f6b656e2063616e742062652061646472657373283029000000000000000081525060200191505060405180910390fd5b60006005541415156106ff576040517f08c379a000000000000000000000000000000000000000000000000000000000815260040180806020018281038252601a8152602001807f476c6f62616c2062616c616e63652073686f756c64206265203000000000000081525060200191505060405180910390fd5b8073ffffffffffffffffffffffffffffffffffffffff166370a08231306040518263ffffffff167c0100000000000000000000000000000000000000000000000000000000028152600401808273ffffffffffffffffffffffffffffffffffffffff1673ffffffffffffffffffffffffffffffffffffffff168152602001915050602060405180830381600087803b15801561079a57600080fd5b505af11580156107ae573d6000803e3d6000fd5b505050506040513d60208110156107c457600080fd5b8101908080519060200190929190505050600681905560058190555080600160006101000a81548173ffffffffffffffffffffffffffffffffffffffff021916908373ffffffffffffffffffffffffffffffffffffffff1602179055507f743eda50f2b339ee29fcadba0d7a3e93d04639ad127a2f312dff6f5817caabe86005546040518082815260200191505060405180910390a150565b606060088054806020026020016040519081016040528092919081815260200182805480156108e157602002820191906000526020600020905b8160009054906101000a900473ffffffffffffffffffffffffffffffffffffffff1673ffffffffffffffffffffffffffffffffffffffff1681526020019060010190808311610897575b5050505050905090565b60008060009054906101000a900473ffffffffffffffffffffffffffffffffffffffff1673ffffffffffffffffffffffffffffffffffffffff163373ffffffffffffffffffffffffffffffffffffffff1614151561094857600080fd5b600060065411151561095957600080fd5b6006549050600060068190555061097b816005546115d190919063ffffffff16565b6005819055506109ef6000809054906101000a900473ffffffffffffffffffffffffffffffffffffffff1682600160009054906101000a900473ffffffffffffffffffffffffffffffffffffffff1673ffffffffffffffffffffffffffffffffffffffff166115ea9092919063ffffffff16565b50565b60606109fc6116d5565b6000809054906101000a900473ffffffffffffffffffffffffffffffffffffffff1673ffffffffffffffffffffffffffffffffffffffff163373ffffffffffffffffffffffffffffffffffffffff16141515610a5757600080fd5b600083111515610a6657600080fd5b600073ffffffffffffffffffffffffffffffffffffffff168673ffffffffffffffffffffffffffffffffffffffff1614151515610aa257600080fd5b6000600554111515610ab357600080fd5b8260065410151515610ac457600080fd5b600960008773ffffffffffffffffffffffffffffffffffffffff1673ffffffffffffffffffffffffffffffffffffffff1681526020019081526020016000206000018054600181600116156101000203166002900480601f016020809104026020016040519081016040528092919081815260200182805460018160011615610100020316600290048015610b9a5780601f10610b6f57610100808354040283529160200191610b9a565b820191906000526020600020905b815481529060010190602001808311610b7d57829003601f168201915b5050505050915060008251141515610bb157600080fd5b610bc6836006546115d190919063ffffffff16565b60068190555060606040519081016040528086868080601f0160208091040260200160405190810160405280939291908181526020018383808284378201915050505050508152602001848152602001600073ffffffffffffffffffffffffffffffffffffffff16815250905080600960008873ffffffffffffffffffffffffffffffffffffffff1673ffffffffffffffffffffffffffffffffffffffff1681526020019081526020016000206000820151816000019080519060200190610c8f92919061170d565b506020820151816001015560408201518160020160006101000a81548173ffffffffffffffffffffffffffffffffffffffff021916908373ffffffffffffffffffffffffffffffffffffffff16021790555090505060088690806001815401808255809150509060018203906000526020600020016000909192909190916101000a81548173ffffffffffffffffffffffffffffffffffffffff021916908373ffffffffffffffffffffffffffffffffffffffff160217905550507f94a15f9694b1e76af6ccfa46f28687a09377ee7da7d252022b49916a87ccf0a786868686604051808573ffffffffffffffffffffffffffffffffffffffff1673ffffffffffffffffffffffffffffffffffffffff16815260200180602001838152602001828103825285858281815260200192508082843782019150509550505050505060405180910390a1505050505050565b6009602052806000526040600020600091509050806000018054600181600116156101000203166002900480601f016020809104026020016040519081016040528092919081815260200182805460018160011615610100020316600290048015610e8b5780601f10610e6057610100808354040283529160200191610e8b565b820191906000526020600020905b815481529060010190602001808311610e6e57829003601f168201915b5050505050908060010154908060020160009054906101000a900473ffffffffffffffffffffffffffffffffffffffff16905083565b6000809054906101000a900473ffffffffffffffffffffffffffffffffffffffff1681565b600881815481101515610ef557fe5b906000526020600020016000915054906101000a900473ffffffffffffffffffffffffffffffffffffffff1681565b60025481565b60065481565b60055481565b6000809054906101000a900473ffffffffffffffffffffffffffffffffffffffff1673ffffffffffffffffffffffffffffffffffffffff163373ffffffffffffffffffffffffffffffffffffffff16141515610f9157600080fd5b600073ffffffffffffffffffffffffffffffffffffffff168173ffffffffffffffffffffffffffffffffffffffff1614151515610fcd57600080fd5b8073ffffffffffffffffffffffffffffffffffffffff166000809054906101000a900473ffffffffffffffffffffffffffffffffffffffff1673ffffffffffffffffffffffffffffffffffffffff167f8be0079c531659141344cd1fd0a4f28419497f9722a3daafe3b4186f6b6457e060405160405180910390a3806000806101000a81548173ffffffffffffffffffffffffffffffffffffffff021916908373ffffffffffffffffffffffffffffffffffffffff16021790555050565b600160009054906101000a900473ffffffffffffffffffffffffffffffffffffffff1681565b60008060008060009054906101000a900473ffffffffffffffffffffffffffffffffffffffff1673ffffffffffffffffffffffffffffffffffffffff163373ffffffffffffffffffffffffffffffffffffffff1614151561111157600080fd5b600073ffffffffffffffffffffffffffffffffffffffff168473ffffffffffffffffffffffffffffffffffffffff161415151561114d57600080fd5b600960008573ffffffffffffffffffffffffffffffffffffffff1673ffffffffffffffffffffffffffffffffffffffff168152602001908152602001600020925060008360020160009054906101000a900473ffffffffffffffffffffffffffffffffffffffff1673ffffffffffffffffffffffffffffffffffffffff16141515611266576040517f08c379a00000000000000000000000000000000000000000000000000000000081526004018080602001828103825260238152602001807f706572736f6e20636f6e747261637420616464726573732073686f756c64206281526020017f652030000000000000000000000000000000000000000000000000000000000081525060400191505060405180910390fd5b60008360010154111515611308576040517f08c379a00000000000000000000000000000000000000000000000000000000081526004018080602001828103825260268152602001807f706572736f6e2073686f756c64206861766520616e20616d6f756e7420616c6c81526020017f6f6361746564000000000000000000000000000000000000000000000000000081525060400191505060405180910390fd5b82600101546005541015151561131d57600080fd5b83600354600454600760009054906101000a900460ff1661133c61178d565b808573ffffffffffffffffffffffffffffffffffffffff1673ffffffffffffffffffffffffffffffffffffffff16815260200184815260200183815260200182151515158152602001945050505050604051809103906000f0801580156113a7573d6000803e3d6000fd5b5091508173ffffffffffffffffffffffffffffffffffffffff1663f2fde38b6000809054906101000a900473ffffffffffffffffffffffffffffffffffffffff166040518263ffffffff167c0100000000000000000000000000000000000000000000000000000000028152600401808273ffffffffffffffffffffffffffffffffffffffff1673ffffffffffffffffffffffffffffffffffffffff168152602001915050600060405180830381600087803b15801561146657600080fd5b505af115801561147a573d6000803e3d6000fd5b50505050818360020160006101000a81548173ffffffffffffffffffffffffffffffffffffffff021916908373ffffffffffffffffffffffffffffffffffffffff160217905550826001015490506114dd816005546115d190919063ffffffff16565b600581905550611534828460010154600160009054906101000a900473ffffffffffffffffffffffffffffffffffffffff1673ffffffffffffffffffffffffffffffffffffffff166115ea9092919063ffffffff16565b7f6efe9ee5e62f22eeea5da8be44fb65bea68dc799333e5b2d31602197805911dd8483604051808373ffffffffffffffffffffffffffffffffffffffff1673ffffffffffffffffffffffffffffffffffffffff1681526020018273ffffffffffffffffffffffffffffffffffffffff1673ffffffffffffffffffffffffffffffffffffffff1681526020019250505060405180910390a150505050565b60008282111515156115df57fe5b818303905092915050565b8273ffffffffffffffffffffffffffffffffffffffff1663a9059cbb83836040518363ffffffff167c0100000000000000000000000000000000000000000000000000000000028152600401808373ffffffffffffffffffffffffffffffffffffffff1673ffffffffffffffffffffffffffffffffffffffff16815260200182815260200192505050602060405180830381600087803b15801561168d57600080fd5b505af11580156116a1573d6000803e3d6000fd5b505050506040513d60208110156116b757600080fd5b810190808051906020019092919050505015156116d057fe5b505050565b6060604051908101604052806060815260200160008152602001600073ffffffffffffffffffffffffffffffffffffffff1681525090565b828054600181600116156101000203166002900490600052602060002090601f016020900481019282601f1061174e57805160ff191683800117855561177c565b8280016001018555821561177c579182015b8281111561177b578251825591602001919060010190611760565b5b509050611789919061179d565b5090565b604051611198806117c383390190565b6117bf91905b808211156117bb5760008160009055506001016117a3565b5090565b905600608060405234801561001057600080fd5b5060405160808061119883398101806040528101908080519060200190929190805190602001909291908051906020019092919080519060200190929190505050336000806101000a81548173ffffffffffffffffffffffffffffffffffffffff021916908373ffffffffffffffffffffffffffffffffffffffff160217905550600073ffffffffffffffffffffffffffffffffffffffff168473ffffffffffffffffffffffffffffffffffffffff16141515156100cd57600080fd5b8183111515156100dc57600080fd5b83600160006101000a81548173ffffffffffffffffffffffffffffffffffffffff021916908373ffffffffffffffffffffffffffffffffffffffff16021790555080600560006101000a81548160ff02191690831515021790555042600381905550816004819055506101678360035461017664010000000002610e76179091906401000000009004565b60028190555050505050610192565b6000818301905082811015151561018957fe5b80905092915050565b610ff7806101a16000396000f3006080604052600436106100db576000357c0100000000000000000000000000000000000000000000000000000000900463ffffffff1680630fb5a6b4146100e057806313d033c01461010b5780631726cbc814610136578063191655871461018d578063384711cc146101d057806338af3eed14610227578063565a2e2c1461027e57806374a8f103146102d5578063872a7810146103185780638da5cb5b146103475780639852595c1461039e5780639e546c38146103f5578063be9a65551461044c578063f2fde38b14610477578063fa01dc06146104ba575b600080fd5b3480156100ec57600080fd5b506100f5610515565b6040518082815260200191505060405180910390f35b34801561011757600080fd5b5061012061051b565b6040518082815260200191505060405180910390f35b34801561014257600080fd5b50610177600480360381019080803573ffffffffffffffffffffffffffffffffffffffff169060200190929190505050610521565b6040518082815260200191505060405180910390f35b34801561019957600080fd5b506101ce600480360381019080803573ffffffffffffffffffffffffffffffffffffffff169060200190929190505050610584565b005b3480156101dc57600080fd5b50610211600480360381019080803573ffffffffffffffffffffffffffffffffffffffff1690602001909291905050506106bd565b6040518082815260200191505060405180910390f35b34801561023357600080fd5b5061023c6108c1565b604051808273ffffffffffffffffffffffffffffffffffffffff1673ffffffffffffffffffffffffffffffffffffffff16815260200191505060405180910390f35b34801561028a57600080fd5b506102936108e7565b604051808273ffffffffffffffffffffffffffffffffffffffff1673ffffffffffffffffffffffffffffffffffffffff16815260200191505060405180910390f35b3480156102e157600080fd5b50610316600480360381019080803573ffffffffffffffffffffffffffffffffffffffff169060200190929190505050610911565b005b34801561032457600080fd5b5061032d610bb3565b604051808215151515815260200191505060405180910390f35b34801561035357600080fd5b5061035c610bc6565b604051808273ffffffffffffffffffffffffffffffffffffffff1673ffffffffffffffffffffffffffffffffffffffff16815260200191505060405180910390f35b3480156103aa57600080fd5b506103df600480360381019080803573ffffffffffffffffffffffffffffffffffffffff169060200190929190505050610beb565b6040518082815260200191505060405180910390f35b34801561040157600080fd5b50610436600480360381019080803573ffffffffffffffffffffffffffffffffffffffff169060200190929190505050610c03565b6040518082815260200191505060405180910390f35b34801561045857600080fd5b50610461610ce2565b6040518082815260200191505060405180910390f35b34801561048357600080fd5b506104b8600480360381019080803573ffffffffffffffffffffffffffffffffffffffff169060200190929190505050610ce8565b005b3480156104c657600080fd5b506104fb600480360381019080803573ffffffffffffffffffffffffffffffffffffffff169060200190929190505050610e3d565b604051808215151515815260200191505060405180910390f35b60045481565b60025481565b600061057d600660008473ffffffffffffffffffffffffffffffffffffffff1673ffffffffffffffffffffffffffffffffffffffff1681526020019081526020016000205461056f846106bd565b610e5d90919063ffffffff16565b9050919050565b600061058f82610521565b90506000811115156105a057600080fd5b6105f281600660008573ffffffffffffffffffffffffffffffffffffffff1673ffffffffffffffffffffffffffffffffffffffff16815260200190815260200160002054610e7690919063ffffffff16565b600660008473ffffffffffffffffffffffffffffffffffffffff1673ffffffffffffffffffffffffffffffffffffffff16815260200190815260200160002081905550610682600160009054906101000a900473ffffffffffffffffffffffffffffffffffffffff16828473ffffffffffffffffffffffffffffffffffffffff16610e929092919063ffffffff16565b7ffb81f9b30d73d830c3544b34d827c08142579ee75710b490bab0b3995468c565816040518082815260200191505060405180910390a15050565b60008060008373ffffffffffffffffffffffffffffffffffffffff166370a08231306040518263ffffffff167c0100000000000000000000000000000000000000000000000000000000028152600401808273ffffffffffffffffffffffffffffffffffffffff1673ffffffffffffffffffffffffffffffffffffffff168152602001915050602060405180830381600087803b15801561075d57600080fd5b505af1158015610771573d6000803e3d6000fd5b505050506040513d602081101561078757600080fd5b810190808051906020019092919050505091506107ec600660008673ffffffffffffffffffffffffffffffffffffffff1673ffffffffffffffffffffffffffffffffffffffff1681526020019081526020016000205483610e7690919063ffffffff16565b905060025442101561080157600092506108ba565b610818600454600354610e7690919063ffffffff16565b4210158061086f5750600760008573ffffffffffffffffffffffffffffffffffffffff1673ffffffffffffffffffffffffffffffffffffffff16815260200190815260200160002060009054906101000a900460ff165b1561087c578092506108ba565b6108b76004546108a961089a60035442610e5d90919063ffffffff16565b84610f7d90919063ffffffff16565b610fb590919063ffffffff16565b92505b5050919050565b600160009054906101000a900473ffffffffffffffffffffffffffffffffffffffff1681565b6000600160009054906101000a900473ffffffffffffffffffffffffffffffffffffffff16905090565b60008060008060009054906101000a900473ffffffffffffffffffffffffffffffffffffffff1673ffffffffffffffffffffffffffffffffffffffff163373ffffffffffffffffffffffffffffffffffffffff1614151561097157600080fd5b600560009054906101000a900460ff16151561098c57600080fd5b600760008573ffffffffffffffffffffffffffffffffffffffff1673ffffffffffffffffffffffffffffffffffffffff16815260200190815260200160002060009054906101000a900460ff161515156109e557600080fd5b8373ffffffffffffffffffffffffffffffffffffffff166370a08231306040518263ffffffff167c0100000000000000000000000000000000000000000000000000000000028152600401808273ffffffffffffffffffffffffffffffffffffffff1673ffffffffffffffffffffffffffffffffffffffff168152602001915050602060405180830381600087803b158015610a8057600080fd5b505af1158015610a94573d6000803e3d6000fd5b505050506040513d6020811015610aaa57600080fd5b81019080805190602001909291905050509250610ac684610521565b9150610adb8284610e5d90919063ffffffff16565b90506001600760008673ffffffffffffffffffffffffffffffffffffffff1673ffffffffffffffffffffffffffffffffffffffff16815260200190815260200160002060006101000a81548160ff021916908315150217905550610b816000809054906101000a900473ffffffffffffffffffffffffffffffffffffffff16828673ffffffffffffffffffffffffffffffffffffffff16610e929092919063ffffffff16565b7f44825a4b2df8acb19ce4e1afba9aa850c8b65cdb7942e2078f27d0b0960efee660405160405180910390a150505050565b600560009054906101000a900460ff1681565b6000809054906101000a900473ffffffffffffffffffffffffffffffffffffffff1681565b60066020528060005260406000206000915090505481565b60008173ffffffffffffffffffffffffffffffffffffffff166370a08231306040518263ffffffff167c0100000000000000000000000000000000000000000000000000000000028152600401808273ffffffffffffffffffffffffffffffffffffffff1673ffffffffffffffffffffffffffffffffffffffff168152602001915050602060405180830381600087803b158015610ca057600080fd5b505af1158015610cb4573d6000803e3d6000fd5b505050506040513d6020811015610cca57600080fd5b81019080805190602001909291905050509050919050565b60035481565b6000809054906101000a900473ffffffffffffffffffffffffffffffffffffffff1673ffffffffffffffffffffffffffffffffffffffff163373ffffffffffffffffffffffffffffffffffffffff16141515610d4357600080fd5b600073ffffffffffffffffffffffffffffffffffffffff168173ffffffffffffffffffffffffffffffffffffffff1614151515610d7f57600080fd5b8073ffffffffffffffffffffffffffffffffffffffff166000809054906101000a900473ffffffffffffffffffffffffffffffffffffffff1673ffffffffffffffffffffffffffffffffffffffff167f8be0079c531659141344cd1fd0a4f28419497f9722a3daafe3b4186f6b6457e060405160405180910390a3806000806101000a81548173ffffffffffffffffffffffffffffffffffffffff021916908373ffffffffffffffffffffffffffffffffffffffff16021790555050565b60076020528060005260406000206000915054906101000a900460ff1681565b6000828211151515610e6b57fe5b818303905092915050565b60008183019050828110151515610e8957fe5b80905092915050565b8273ffffffffffffffffffffffffffffffffffffffff1663a9059cbb83836040518363ffffffff167c0100000000000000000000000000000000000000000000000000000000028152600401808373ffffffffffffffffffffffffffffffffffffffff1673ffffffffffffffffffffffffffffffffffffffff16815260200182815260200192505050602060405180830381600087803b158015610f3557600080fd5b505af1158015610f49573d6000803e3d6000fd5b505050506040513d6020811015610f5f57600080fd5b81019080805190602001909291905050501515610f7857fe5b505050565b600080831415610f905760009050610faf565b8183029050818382811515610fa157fe5b04141515610fab57fe5b8090505b92915050565b60008183811515610fc257fe5b049050929150505600a165627a7a72305820b83ac83845a7156022a22dd64bdfd632aa974090e4c3c9b9141a4df9c25f7bea0029a165627a7a7230582024a9bfee6a9b81ce788c9115da4c80717525fe12a49b511c2463d36801fe1a630029",
  "source": "pragma solidity ^0.4.23;\r\n\r\nimport \"./TokenVesting.sol\";\r\nimport \"./DelvaToken.sol\";\r\nimport \"./SafeMath.sol\";\r\nimport \"./Ownable.sol\";\r\nimport \"./SafeERC20.sol\";\r\n\r\ncontract TokenVestingFactory is Ownable {\r\n    event SetGlobalBalance(uint256 globalBalance);\r\n    event AddPerson(address personAddress, string personName, uint256 amountAllocated);\r\n    event VestingContractCreated(address beneficiary, address contractAddress);\r\n    using SafeMath for uint256;\r\n    using SafeERC20 for DelvaToken;\r\n    \r\n    struct Person {\r\n        string name;\r\n        uint256 amountAllocated; \r\n        address contractAddress;\r\n    }\r\n\r\n    DelvaToken public token;\r\n    uint256 public start = now; \r\n\r\n    uint256 public cliff = 300;\r\n    uint256 public duration = cliff + 600; // 20 secs\r\n\r\n    uint256 public globalBalance;\r\n    uint256 public currentBalance;\r\n    \r\n    bool revocable = true;\r\n\r\n    address[] public people;\r\n    mapping(address => Person) public mapPerson;    \r\n\r\n    function setGlobalBalance(DelvaToken _token) external onlyOwner {\r\n        require(_token != address(0), \"Token cant be address(0)\");\r\n        require(globalBalance==0, \"Global balance should be 0\");\r\n        globalBalance = currentBalance = _token.balanceOf(this);\r\n        token = _token;\r\n        emit SetGlobalBalance(globalBalance);\r\n    }\r\n\r\n    function addPerson(address _beneficiary, string _name, uint256 _amountAllocated) external onlyOwner {\r\n        require(_amountAllocated > 0);\r\n        require(_beneficiary != address(0));        \r\n        require(globalBalance > 0);\r\n        require(currentBalance >= _amountAllocated);  \r\n        bytes memory name = bytes(mapPerson[_beneficiary].name);\r\n        require(name.length == 0);\r\n        currentBalance = currentBalance.sub(_amountAllocated);      \r\n        Person memory newPerson = Person({\r\n            name: _name,\r\n            amountAllocated: _amountAllocated,\r\n            contractAddress: address(0)\r\n        });\r\n        mapPerson[_beneficiary] = newPerson;\r\n        people.push(_beneficiary);\r\n        emit AddPerson(_beneficiary, _name, _amountAllocated);\r\n        \r\n    }\r\n\r\n    function createVestingContract(address _beneficiary) external onlyOwner {\r\n        require(_beneficiary != address(0));\r\n        Person storage person = mapPerson[_beneficiary];\r\n        require(person.contractAddress == 0, \"person contract address should be 0\");\r\n        require(person.amountAllocated > 0, \"person should have an amount allocated\");\r\n        require(globalBalance >= person.amountAllocated);\r\n        TokenVesting tokenVesting = new TokenVesting(_beneficiary, cliff, duration, revocable);\r\n        tokenVesting.transferOwnership(owner);\r\n        person.contractAddress = address(tokenVesting);\r\n        uint256 amountAllocated = person.amountAllocated;\r\n        globalBalance = globalBalance.sub(amountAllocated);\r\n        token.safeTransfer(address(tokenVesting), person.amountAllocated);\r\n        emit VestingContractCreated(_beneficiary, address(tokenVesting));\r\n    }\r\n\r\n    function refund() external onlyOwner {\r\n        require(currentBalance > 0);\r\n        uint256 _currentBalance = currentBalance;\r\n        currentBalance = 0;\r\n        globalBalance = globalBalance.sub(_currentBalance);\r\n        token.safeTransfer(owner, _currentBalance);\r\n    }\r\n\r\n    function getPeople() external view returns (address[]){\r\n        return people;\r\n    }\r\n\r\n}",
  "sourcePath": "E:\\Ethereum\\DelvaToken\\contracts\\TokenVestingFactory.sol",
  "compiler": {
    "name": "solc",
    "version": "0.4.23+commit.124ca40d.Emscripten.clang"
  },
  "schemaVersion": "2.0.0",
  "updatedAt": "2018-06-04T03:22:03.488Z"
}