{
  "contractName": "TokenVesting",
  "abi": [
    {
      "constant": true,
      "inputs": [],
      "name": "duration",
      "outputs": [
        {
          "name": "",
          "type": "uint256"
        }
      ],
      "payable": false,
      "stateMutability": "view",
      "type": "function"
    },
    {
      "constant": true,
      "inputs": [],
      "name": "cliff",
      "outputs": [
        {
          "name": "",
          "type": "uint256"
        }
      ],
      "payable": false,
      "stateMutability": "view",
      "type": "function"
    },
    {
      "constant": true,
      "inputs": [],
      "name": "beneficiary",
      "outputs": [
        {
          "name": "",
          "type": "address"
        }
      ],
      "payable": false,
      "stateMutability": "view",
      "type": "function"
    },
    {
      "constant": true,
      "inputs": [],
      "name": "revocable",
      "outputs": [
        {
          "name": "",
          "type": "bool"
        }
      ],
      "payable": false,
      "stateMutability": "view",
      "type": "function"
    },
    {
      "constant": true,
      "inputs": [],
      "name": "owner",
      "outputs": [
        {
          "name": "",
          "type": "address"
        }
      ],
      "payable": false,
      "stateMutability": "view",
      "type": "function"
    },
    {
      "constant": true,
      "inputs": [
        {
          "name": "",
          "type": "address"
        }
      ],
      "name": "released",
      "outputs": [
        {
          "name": "",
          "type": "uint256"
        }
      ],
      "payable": false,
      "stateMutability": "view",
      "type": "function"
    },
    {
      "constant": true,
      "inputs": [],
      "name": "start",
      "outputs": [
        {
          "name": "",
          "type": "uint256"
        }
      ],
      "payable": false,
      "stateMutability": "view",
      "type": "function"
    },
    {
      "constant": false,
      "inputs": [
        {
          "name": "newOwner",
          "type": "address"
        }
      ],
      "name": "transferOwnership",
      "outputs": [],
      "payable": false,
      "stateMutability": "nonpayable",
      "type": "function"
    },
    {
      "constant": true,
      "inputs": [
        {
          "name": "",
          "type": "address"
        }
      ],
      "name": "revoked",
      "outputs": [
        {
          "name": "",
          "type": "bool"
        }
      ],
      "payable": false,
      "stateMutability": "view",
      "type": "function"
    },
    {
      "inputs": [
        {
          "name": "_beneficiary",
          "type": "address"
        },
        {
          "name": "_cliff",
          "type": "uint256"
        },
        {
          "name": "_duration",
          "type": "uint256"
        },
        {
          "name": "_revocable",
          "type": "bool"
        }
      ],
      "payable": false,
      "stateMutability": "nonpayable",
      "type": "constructor"
    },
    {
      "anonymous": false,
      "inputs": [
        {
          "indexed": false,
          "name": "amount",
          "type": "uint256"
        }
      ],
      "name": "Released",
      "type": "event"
    },
    {
      "anonymous": false,
      "inputs": [],
      "name": "Revoked",
      "type": "event"
    },
    {
      "anonymous": false,
      "inputs": [
        {
          "indexed": true,
          "name": "previousOwner",
          "type": "address"
        },
        {
          "indexed": true,
          "name": "newOwner",
          "type": "address"
        }
      ],
      "name": "OwnershipTransferred",
      "type": "event"
    },
    {
      "constant": false,
      "inputs": [
        {
          "name": "token",
          "type": "address"
        }
      ],
      "name": "release",
      "outputs": [],
      "payable": false,
      "stateMutability": "nonpayable",
      "type": "function"
    },
    {
      "constant": false,
      "inputs": [
        {
          "name": "token",
          "type": "address"
        }
      ],
      "name": "revoke",
      "outputs": [],
      "payable": false,
      "stateMutability": "nonpayable",
      "type": "function"
    },
    {
      "constant": true,
      "inputs": [
        {
          "name": "token",
          "type": "address"
        }
      ],
      "name": "releasableAmount",
      "outputs": [
        {
          "name": "",
          "type": "uint256"
        }
      ],
      "payable": false,
      "stateMutability": "view",
      "type": "function"
    },
    {
      "constant": true,
      "inputs": [
        {
          "name": "token",
          "type": "address"
        }
      ],
      "name": "vestedAmount",
      "outputs": [
        {
          "name": "",
          "type": "uint256"
        }
      ],
      "payable": false,
      "stateMutability": "view",
      "type": "function"
    },
    {
      "constant": true,
      "inputs": [],
      "name": "getBeneficiary",
      "outputs": [
        {
          "name": "",
          "type": "address"
        }
      ],
      "payable": false,
      "stateMutability": "view",
      "type": "function"
    },
    {
      "constant": true,
      "inputs": [
        {
          "name": "token",
          "type": "address"
        }
      ],
      "name": "currentBalance",
      "outputs": [
        {
          "name": "",
          "type": "uint256"
        }
      ],
      "payable": false,
      "stateMutability": "view",
      "type": "function"
    }
  ],
  "bytecode": "0x608060405234801561001057600080fd5b5060405160808061119883398101806040528101908080519060200190929190805190602001909291908051906020019092919080519060200190929190505050336000806101000a81548173ffffffffffffffffffffffffffffffffffffffff021916908373ffffffffffffffffffffffffffffffffffffffff160217905550600073ffffffffffffffffffffffffffffffffffffffff168473ffffffffffffffffffffffffffffffffffffffff16141515156100cd57600080fd5b8183111515156100dc57600080fd5b83600160006101000a81548173ffffffffffffffffffffffffffffffffffffffff021916908373ffffffffffffffffffffffffffffffffffffffff16021790555080600560006101000a81548160ff02191690831515021790555042600381905550816004819055506101678360035461017664010000000002610e76179091906401000000009004565b60028190555050505050610192565b6000818301905082811015151561018957fe5b80905092915050565b610ff7806101a16000396000f3006080604052600436106100db576000357c0100000000000000000000000000000000000000000000000000000000900463ffffffff1680630fb5a6b4146100e057806313d033c01461010b5780631726cbc814610136578063191655871461018d578063384711cc146101d057806338af3eed14610227578063565a2e2c1461027e57806374a8f103146102d5578063872a7810146103185780638da5cb5b146103475780639852595c1461039e5780639e546c38146103f5578063be9a65551461044c578063f2fde38b14610477578063fa01dc06146104ba575b600080fd5b3480156100ec57600080fd5b506100f5610515565b6040518082815260200191505060405180910390f35b34801561011757600080fd5b5061012061051b565b6040518082815260200191505060405180910390f35b34801561014257600080fd5b50610177600480360381019080803573ffffffffffffffffffffffffffffffffffffffff169060200190929190505050610521565b6040518082815260200191505060405180910390f35b34801561019957600080fd5b506101ce600480360381019080803573ffffffffffffffffffffffffffffffffffffffff169060200190929190505050610584565b005b3480156101dc57600080fd5b50610211600480360381019080803573ffffffffffffffffffffffffffffffffffffffff1690602001909291905050506106bd565b6040518082815260200191505060405180910390f35b34801561023357600080fd5b5061023c6108c1565b604051808273ffffffffffffffffffffffffffffffffffffffff1673ffffffffffffffffffffffffffffffffffffffff16815260200191505060405180910390f35b34801561028a57600080fd5b506102936108e7565b604051808273ffffffffffffffffffffffffffffffffffffffff1673ffffffffffffffffffffffffffffffffffffffff16815260200191505060405180910390f35b3480156102e157600080fd5b50610316600480360381019080803573ffffffffffffffffffffffffffffffffffffffff169060200190929190505050610911565b005b34801561032457600080fd5b5061032d610bb3565b604051808215151515815260200191505060405180910390f35b34801561035357600080fd5b5061035c610bc6565b604051808273ffffffffffffffffffffffffffffffffffffffff1673ffffffffffffffffffffffffffffffffffffffff16815260200191505060405180910390f35b3480156103aa57600080fd5b506103df600480360381019080803573ffffffffffffffffffffffffffffffffffffffff169060200190929190505050610beb565b6040518082815260200191505060405180910390f35b34801561040157600080fd5b50610436600480360381019080803573ffffffffffffffffffffffffffffffffffffffff169060200190929190505050610c03565b6040518082815260200191505060405180910390f35b34801561045857600080fd5b50610461610ce2565b6040518082815260200191505060405180910390f35b34801561048357600080fd5b506104b8600480360381019080803573ffffffffffffffffffffffffffffffffffffffff169060200190929190505050610ce8565b005b3480156104c657600080fd5b506104fb600480360381019080803573ffffffffffffffffffffffffffffffffffffffff169060200190929190505050610e3d565b604051808215151515815260200191505060405180910390f35b60045481565b60025481565b600061057d600660008473ffffffffffffffffffffffffffffffffffffffff1673ffffffffffffffffffffffffffffffffffffffff1681526020019081526020016000205461056f846106bd565b610e5d90919063ffffffff16565b9050919050565b600061058f82610521565b90506000811115156105a057600080fd5b6105f281600660008573ffffffffffffffffffffffffffffffffffffffff1673ffffffffffffffffffffffffffffffffffffffff16815260200190815260200160002054610e7690919063ffffffff16565b600660008473ffffffffffffffffffffffffffffffffffffffff1673ffffffffffffffffffffffffffffffffffffffff16815260200190815260200160002081905550610682600160009054906101000a900473ffffffffffffffffffffffffffffffffffffffff16828473ffffffffffffffffffffffffffffffffffffffff16610e929092919063ffffffff16565b7ffb81f9b30d73d830c3544b34d827c08142579ee75710b490bab0b3995468c565816040518082815260200191505060405180910390a15050565b60008060008373ffffffffffffffffffffffffffffffffffffffff166370a08231306040518263ffffffff167c0100000000000000000000000000000000000000000000000000000000028152600401808273ffffffffffffffffffffffffffffffffffffffff1673ffffffffffffffffffffffffffffffffffffffff168152602001915050602060405180830381600087803b15801561075d57600080fd5b505af1158015610771573d6000803e3d6000fd5b505050506040513d602081101561078757600080fd5b810190808051906020019092919050505091506107ec600660008673ffffffffffffffffffffffffffffffffffffffff1673ffffffffffffffffffffffffffffffffffffffff1681526020019081526020016000205483610e7690919063ffffffff16565b905060025442101561080157600092506108ba565b610818600454600354610e7690919063ffffffff16565b4210158061086f5750600760008573ffffffffffffffffffffffffffffffffffffffff1673ffffffffffffffffffffffffffffffffffffffff16815260200190815260200160002060009054906101000a900460ff165b1561087c578092506108ba565b6108b76004546108a961089a60035442610e5d90919063ffffffff16565b84610f7d90919063ffffffff16565b610fb590919063ffffffff16565b92505b5050919050565b600160009054906101000a900473ffffffffffffffffffffffffffffffffffffffff1681565b6000600160009054906101000a900473ffffffffffffffffffffffffffffffffffffffff16905090565b60008060008060009054906101000a900473ffffffffffffffffffffffffffffffffffffffff1673ffffffffffffffffffffffffffffffffffffffff163373ffffffffffffffffffffffffffffffffffffffff1614151561097157600080fd5b600560009054906101000a900460ff16151561098c57600080fd5b600760008573ffffffffffffffffffffffffffffffffffffffff1673ffffffffffffffffffffffffffffffffffffffff16815260200190815260200160002060009054906101000a900460ff161515156109e557600080fd5b8373ffffffffffffffffffffffffffffffffffffffff166370a08231306040518263ffffffff167c0100000000000000000000000000000000000000000000000000000000028152600401808273ffffffffffffffffffffffffffffffffffffffff1673ffffffffffffffffffffffffffffffffffffffff168152602001915050602060405180830381600087803b158015610a8057600080fd5b505af1158015610a94573d6000803e3d6000fd5b505050506040513d6020811015610aaa57600080fd5b81019080805190602001909291905050509250610ac684610521565b9150610adb8284610e5d90919063ffffffff16565b90506001600760008673ffffffffffffffffffffffffffffffffffffffff1673ffffffffffffffffffffffffffffffffffffffff16815260200190815260200160002060006101000a81548160ff021916908315150217905550610b816000809054906101000a900473ffffffffffffffffffffffffffffffffffffffff16828673ffffffffffffffffffffffffffffffffffffffff16610e929092919063ffffffff16565b7f44825a4b2df8acb19ce4e1afba9aa850c8b65cdb7942e2078f27d0b0960efee660405160405180910390a150505050565b600560009054906101000a900460ff1681565b6000809054906101000a900473ffffffffffffffffffffffffffffffffffffffff1681565b60066020528060005260406000206000915090505481565b60008173ffffffffffffffffffffffffffffffffffffffff166370a08231306040518263ffffffff167c0100000000000000000000000000000000000000000000000000000000028152600401808273ffffffffffffffffffffffffffffffffffffffff1673ffffffffffffffffffffffffffffffffffffffff168152602001915050602060405180830381600087803b158015610ca057600080fd5b505af1158015610cb4573d6000803e3d6000fd5b505050506040513d6020811015610cca57600080fd5b81019080805190602001909291905050509050919050565b60035481565b6000809054906101000a900473ffffffffffffffffffffffffffffffffffffffff1673ffffffffffffffffffffffffffffffffffffffff163373ffffffffffffffffffffffffffffffffffffffff16141515610d4357600080fd5b600073ffffffffffffffffffffffffffffffffffffffff168173ffffffffffffffffffffffffffffffffffffffff1614151515610d7f57600080fd5b8073ffffffffffffffffffffffffffffffffffffffff166000809054906101000a900473ffffffffffffffffffffffffffffffffffffffff1673ffffffffffffffffffffffffffffffffffffffff167f8be0079c531659141344cd1fd0a4f28419497f9722a3daafe3b4186f6b6457e060405160405180910390a3806000806101000a81548173ffffffffffffffffffffffffffffffffffffffff021916908373ffffffffffffffffffffffffffffffffffffffff16021790555050565b60076020528060005260406000206000915054906101000a900460ff1681565b6000828211151515610e6b57fe5b818303905092915050565b60008183019050828110151515610e8957fe5b80905092915050565b8273ffffffffffffffffffffffffffffffffffffffff1663a9059cbb83836040518363ffffffff167c0100000000000000000000000000000000000000000000000000000000028152600401808373ffffffffffffffffffffffffffffffffffffffff1673ffffffffffffffffffffffffffffffffffffffff16815260200182815260200192505050602060405180830381600087803b158015610f3557600080fd5b505af1158015610f49573d6000803e3d6000fd5b505050506040513d6020811015610f5f57600080fd5b81019080805190602001909291905050501515610f7857fe5b505050565b600080831415610f905760009050610faf565b8183029050818382811515610fa157fe5b04141515610fab57fe5b8090505b92915050565b60008183811515610fc257fe5b049050929150505600a165627a7a72305820b83ac83845a7156022a22dd64bdfd632aa974090e4c3c9b9141a4df9c25f7bea0029",
  "source": "pragma solidity ^0.4.23;\r\n\r\nimport \"./DelvaToken.sol\";\r\nimport \"./SafeERC20.sol\";\r\nimport \"./Ownable.sol\";\r\nimport \"./SafeMath.sol\";\r\n\r\n\r\n/**\r\n * @title TokenVesting\r\n * @dev A token holder contract that can release its token balance gradually like a\r\n * typical vesting scheme, with a cliff and vesting period. Optionally revocable by the\r\n * owner.\r\n */\r\ncontract TokenVesting is Ownable {\r\n    using SafeMath for uint256;\r\n    using SafeERC20 for DelvaToken;\r\n\r\n    event Released(uint256 amount);\r\n    event Revoked();\r\n\r\n    // beneficiary of tokens after they are released\r\n    address public beneficiary;\r\n\r\n    uint256 public cliff;\r\n    uint256 public start;\r\n    uint256 public duration;\r\n\r\n    bool public revocable;\r\n\r\n    mapping (address => uint256) public released;\r\n    mapping (address => bool) public revoked;\r\n\r\n  /**\r\n   * @dev Creates a vesting contract that vests its balance of any DelvaToken to the\r\n   * _beneficiary, gradually in a linear fashion until _start + _duration. By then all\r\n   * of the balance will have vested.\r\n   * @param _beneficiary address of the beneficiary to whom vested tokens are transferred\r\n   * @param _cliff duration in seconds of the cliff in which tokens will begin to vest\r\n   * @param _duration duration in seconds of the period in which the tokens will vest\r\n   * @param _revocable whether the vesting is revocable or not\r\n   */\r\n    constructor(address _beneficiary, uint256 _cliff, uint256 _duration, bool _revocable) public {\r\n        require(_beneficiary != address(0));\r\n        require(_cliff <= _duration);\r\n\r\n        beneficiary = _beneficiary;\r\n        revocable = _revocable;\r\n        start = now;\r\n        duration = _duration;\r\n        cliff = start.add(_cliff);\r\n        \r\n    }\r\n\r\n  /**\r\n   * @notice Transfers vested tokens to beneficiary.\r\n   * @param token DelvaToken which is being vested\r\n   */\r\n    function release(DelvaToken token) public {\r\n        uint256 unreleased = releasableAmount(token);\r\n\r\n        require(unreleased > 0);\r\n\r\n        released[token] = released[token].add(unreleased);\r\n\r\n        token.safeTransfer(beneficiary, unreleased);\r\n\r\n        emit Released(unreleased);\r\n    }\r\n\r\n  /**\r\n   * @notice Allows the owner to revoke the vesting. Tokens already vested\r\n   * remain in the contract, the rest are returned to the owner.\r\n   * @param token DelvaToken which is being vested\r\n   */\r\n    function revoke(DelvaToken token) external onlyOwner {\r\n        require(revocable);\r\n        require(!revoked[token]);\r\n\r\n        uint256 balance = token.balanceOf(this);\r\n\r\n        uint256 unreleased = releasableAmount(token);\r\n        uint256 refund = balance.sub(unreleased);\r\n\r\n        revoked[token] = true;\r\n\r\n        token.safeTransfer(owner, refund);\r\n\r\n        emit Revoked();\r\n    }\r\n\r\n  /**\r\n   * @dev Calculates the amount that has already vested but hasn't been released yet.\r\n   * @param token DelvaToken which is being vested\r\n   */\r\n    function releasableAmount(DelvaToken token) public view returns (uint256) {\r\n        return vestedAmount(token).sub(released[token]);\r\n    }\r\n\r\n  /**\r\n   * @dev Calculates the amount that has already vested.\r\n   * @param token DelvaToken which is being vested\r\n   */\r\n    function vestedAmount(DelvaToken token) public view returns (uint256) {\r\n        uint256 currentBalance = token.balanceOf(this);\r\n        uint256 totalBalance = currentBalance.add(released[token]);\r\n\r\n        if (block.timestamp < cliff) {\r\n            return 0;\r\n        } else if (block.timestamp >= start.add(duration) || revoked[token]) {\r\n            return totalBalance;\r\n        } else {\r\n            return totalBalance.mul(block.timestamp.sub(start)).div(duration);\r\n        }\r\n    }\r\n\r\n    function getBeneficiary() public view returns (address) {\r\n        return beneficiary;\r\n    }\r\n\r\n    function currentBalance(DelvaToken token) external view returns (uint256) {\r\n        return token.balanceOf(this);\r\n    }\r\n\r\n}\r\n",
  "sourcePath": "E:\\Ethereum\\DelvaToken\\contracts\\TokenVesting.sol",
  "compiler": {
    "name": "solc",
    "version": "0.4.23+commit.124ca40d.Emscripten.clang"
  },
  "schemaVersion": "2.0.0",
  "updatedAt": "2018-06-04T03:22:03.487Z"
}